:100000000C9462000C948A000C948A000C948A0070
:100010000C948A000C948A000C948A000C9453056A
:100020000C948A000C948A000C948A000C94780535
:100030000C948A000C948A000C948A000C948A0018
:100040000C94B1040C948A000C9421050C94FB04CC
:100050000C948A000C948A000C948A000C948A00F8
:100060000C948A000C948A00000000080002010031
:100070000003040700000000000000000000000072
:10008000240027002A000000000023002600290089
:1000900000000000250028002B00040404040404D0
:1000A0000404020202020202030303030303010227
:1000B00004081020408001020408102001020408F6
:1000C0001020340611241FBECFEFD8E0DEBFCDBF15
:1000D00011E0A0E0B1E0EAEFF8E102C005900D9276
:1000E000A233B107D9F722E0A2E3B1E001C01D922B
:1000F000AC33B207E1F710E0C2E6D0E004C02197CC
:10010000FE010E94750CC136D107C9F70E94EF06A7
:100110000C947B0C0C94000090E0FC01E859FF4F1C
:100120002491FC01E255FF4F3491FC01E656FF4F4C
:10013000E491EE23C9F0222339F0233001F1A8F431
:10014000213019F1223029F1F0E0EE0FFF1FE057C6
:10015000FF4FA591B4918FB7F894EC91611126C02F
:1001600030953E233C938FBF08952730A9F0283067
:10017000C9F0243049F7809180008F7D03C08091C1
:1001800080008F7780938000DFCF84B58F7784BD28
:10019000DBCF84B58F7DFBCF8091B0008F778093CC
:1001A000B000D2CF8091B0008F7DF9CF3E2BDACF57
:1001B0003FB7F8948091580190915901A0915A014C
:1001C000B0915B0126B5A89B05C02F3F19F00196A1
:1001D000A11DB11D3FBFBA2FA92F982F8827BC01A1
:1001E000CD01620F711D811D911D42E0660F771FC9
:1001F000881F991F4A95D1F708958F929F92AF92C9
:10020000BF92CF92DF92EF92FF926B017C010E942E
:10021000D8004B015C01C114D104E104F104B9F030
:100220000E94D800681979098A099B09683E7340C1
:100230008105910580F321E0C21AD108E108F10897
:1002400088EE880E83E0981EA11CB11CE4CFFF90BD
:10025000EF90DF90CF90BF90AF909F908F900895D8
:10026000AF92BF92CF92DF92EF92FF920F931F93C4
:10027000CF93DF936C017B018B01040F151FEB0102
:100280005E01AE18BF08C017D10759F06991D601B9
:10029000ED91FC910190F081E02DC6010995892B2B
:1002A00079F7C501DF91CF911F910F91FF90EF90EA
:1002B000DF90CF90BF90AF900895FC01538D448D97
:1002C000252F30E0842F90E0821B930B541710F001
:1002D000CF96089501970895FC01918D828D98170E
:1002E00061F0A28DAE0FBF2FB11D5D968C91928DE6
:1002F0009F5F9F73928F90E008958FEF9FEF089517
:10030000FC01918D828D981731F0828DE80FF11DDF
:10031000858D90E008958FEF9FEF0895FC01918DFA
:10032000228D892F90E0805C9F4F821B91098F73F3
:10033000992708958CE591E00E948E0121E0892B98
:1003400009F420E0822F089580E090E0892B29F0C5
:100350000E949A0181110C9400000895FC01A48D63
:10036000A80FB92FB11DA35ABF4F2C91848D90E0D7
:1003700001968F739927848FA689B7892C93A089BA
:10038000B1898C91837080648C93938D848D981344
:1003900006C00288F389E02D80818F7D80830895D7
:1003A000EF92FF920F931F93CF93DF93EC0181E0C5
:1003B000888F9B8D8C8D98131AC0E889F98980816C
:1003C00085FF15C09FB7F894EE89FF896083E8899F
:1003D000F98980818370806480839FBF81E090E091
:1003E000DF91CF911F910F91FF90EF900895F62E1E
:1003F0000B8D10E00F5F1F4F0F731127E02E8C8DB8
:100400008E110CC00FB607FCFACFE889F9898081FC
:1004100085FFF5CFCE010E94AE01F1CFEB8DEC0F41
:10042000FD2FF11DE35AFF4FF0829FB7F8940B8F19
:10043000EA89FB8980818062CFCFCF93DF93EC0183
:10044000888D8823B9F0AA89BB89E889F9898C91BC
:1004500085FD03C0808186FD0DC00FB607FCF7CF78
:100460008C9185FFF2CF808185FFEDCFCE010E9478
:10047000AE01E9CFDF91CF910895FC0101900020FA
:10048000E9F73197AF01481B590BBC018CE591E0AE
:100490000C9430018F929F92AF92BF920F931F9353
:1004A000CF93DF93CDB7DEB7A1970FB6F894DEBF39
:1004B0000FBECDBF19A2423008F44AE08E010F5D95
:1004C0001F4F842E912CB12CA12CA50194010E94C8
:1004D000E109E62FB901CA01EA30F4F4E05DD80180
:1004E000EE938D01232B242B252B79F790E080E0D0
:1004F000109719F0CD010E943D02A1960FB6F89415
:10050000DEBF0FBECDBFDF91CF911F910F91BF9086
:10051000AF909F908F900895E95CE1CF4F925F92EA
:100520006F927F928F929F92AF92BF92CF92DF9203
:10053000EF92FF920F931F93CF936B017C01742E68
:10054000AC019B010E94500C882399F082E191E05C
:10055000CF911F910F91FF90EF90DF90CF90BF90C0
:10056000AF909F908F907F906F905F904F900C9482
:100570003D0246015701E894B7F82FEF3FEF4FE7F0
:100580005FE7C501B4010E94500C81110DC02FEF2F
:100590003FEF4FE75FE7C501B4010E947F0A1816DD
:1005A0001CF486E191E0D4CF2FEF3FEF4FE75FE4FB
:1005B000C701B6010E94DE0B18161CF48AE191E017
:1005C000C7CF2FEF3FEF4FE75FECC701B6010E94A7
:1005D0007F0A87FDF3CF20E030E0A901C701B60113
:1005E0000E947F0A10E000E087FF0AC06DE28CE500
:1005F00091E00E94D0018C01F7FAF094F7F8F094A2
:10060000C0E060E070E080E09FE37C1641F020E015
:1006100030E040E251E40E94840ACF5FF6CFA701A8
:1006200096010E94130A2B013C010E94FD0A4B0116
:100630005C014AE00E944A027C01E00EF11ECC23DC
:10064000C1F1C501B4010E942C0B9B01AC01C30197
:10065000B2010E94120A4B015C016EE28CE591E04E
:100660000E94D001E80EF91EC15018F120E030E0E0
:1006700040E251E4C501B4010E94E30B2B013C01AF
:100680000E94FD0A4B01B12CA12C4AE0C501B40126
:100690000E944A02E80EF91EC501B4010E942C0B0B
:1006A0009B01AC01C301B2010E94120A4B015C0123
:1006B000DBCFC701CF911F910F91FF90EF90DF909B
:1006C000CF90BF90AF909F908F907F906F905F90F2
:1006D0004F9008954F925F926F927F92AF92BF9228
:1006E000CF92DF92EF92FF920F931F93CF93DF93FE
:1006F00000D000D000D0CDB7DEB764E170E080E07C
:1007000090E00E94FD001A82198273E0B72EA12C9E
:100710000BE210E00E94D8006B017C01E0913302F3
:10072000F0913402808190912D02892B8083E09199
:100730002F02F0913002808190912D02892B8083CD
:10074000C8010197F1F7E0912F02F09130029081FA
:1007500080912D0280958923808380913B0288239C
:1007600051F0E0913302F0913402908180912D029A
:10077000809589238083E0913102F091320280815B
:1007800090912E02892391F50E94D800AB01BC0103
:100790008091350290913602B0E0A0E08855994EE4
:1007A000AF4FBF4F840F951FA61FB71F809337020F
:1007B00090933802A0933902B0933A02E09131024B
:1007C000F0913202808190912E02892389F40E9457
:1007D000D8004090370250903802609039027090F3
:1007E0003A02461657066806790640F7BA946AC078
:1007F0000E94D8002091350230913602620F731F9B
:10080000811D911D609337027093380280933902E5
:1008100090933A02E0913102F091320280819091FE
:100820002E02892381F00E94D80040903702509018
:1008300038026090390270903A02461657066806F0
:10084000790640F7D3CF0E94D8002091350230912D
:100850003602A901455051092091370230913802E2
:10086000FA01E21BF30BAF01460F571F411551056B
:1008700009F4BCCFAA20C1F0AA2DB0E0AA0FBB1F7B
:10088000129681E090E08C0F9D1FA80FB91F2A2DB2
:10089000CD010497FC01808191818417950728F48C
:1008A0009E938E932150A1F720E0E22FF0E0EE0F0F
:1008B000FF1F81E090E08C0F9D1FE80FF91F51830F
:1008C0004083A394AB1420F50E94D8006C197D09D5
:1008D0008E099F09603375478105910508F01ACF8D
:1008E0000E94D800F0E3CF0EF5E7DF1EE11CF11CFB
:1008F000C61AD70AE80AF90AC701B6012AE096958E
:100900008795779567952A95D1F70E94FD0002CFCC
:10091000EB2DEE7FEC0FFD2FF11D8181928169E3BC
:1009200070E00E94610C6F31710510F06EE170E0B3
:1009300090E080E00E942E0B26960FB6F894DEBF62
:100940000FBECDBFDF91CF911F910F91FF90EF9020
:10095000DF90CF90BF90AF907F906F905F904F905F
:1009600008951F920F920FB60F9211242F933F9369
:100970008F939F93AF93BF938091F9019091FA0168
:10098000A091FB01B091FC013091570123E0230FAE
:100990002D3758F50196A11DB11D20935701809365
:1009A000F9019093FA01A093FB01B093FC018091AF
:1009B000580190915901A0915A01B0915B010196A3
:1009C000A11DB11D8093580190935901A0935A0124
:1009D000B0935B01BF91AF919F918F913F912F9108
:1009E0000F900FBE0F901F90189526E8230F0296C8
:1009F000A11DB11DD2CF1F920F920FB60F921124DD
:100A00002F933F934F935F936F937F938F939F9316
:100A1000AF93BF93EF93FF938CE591E00E94AE01FB
:100A2000FF91EF91BF91AF919F918F917F916F91C6
:100A30005F914F913F912F910F900FBE0F901F909C
:100A400018951F920F920FB60F9211242F938F9328
:100A50009F93EF93FF93E0916C01F0916D01808182
:100A6000E0917201F091730182FD1BC09081809131
:100A700075018F5F8F7320917601821741F0E091AD
:100A80007501F0E0E45AFE4F958F80937501FF9158
:100A9000EF919F918F912F910F900FBE0F901F900C
:100AA00018958081F4CF1F920F920FB60F921124E8
:100AB0002F933F934F935F936F937F938F939F9366
:100AC000AF93BF93EF93FF93F0E0E0E00995FF91C0
:100AD000EF91BF91AF919F918F917F916F915F91B6
:100AE0004F913F912F910F900FBE0F901F9018952F
:100AF0001F920F920FB60F9211242F933F934F9393
:100B00005F936F937F938F939F93AF93BF93CF9395
:100B1000DF93EF93FF9380913601C0912102D0E0E3
:100B200087FF24C0109285001092840080913601C6
:100B30008F5F8093360180913601082E000C990B4F
:100B40008C179D0724F4809136018C30C4F180917C
:100B5000840090918500049680349C4908F47AC002
:100B60008091840090918500049676C08091360132
:100B7000082E000C990B8C179D07C4F6E0913601E6
:100B80008E2FEE0F990BFC01EE0FFF1FE80FF91FE0
:100B9000E350FE4F808186FFC9CFE09136018E2F52
:100BA000EE0F990BFC01EE0FFF1FE80FF91FE3504A
:100BB000FE4F808160E08F730E948C00B7CF209140
:100BC000840030918500E09136018E2FEE0F990B55
:100BD000FC01EE0FFF1FE80FF91FE350FE4F81816C
:100BE0009281820F931F9093890080938800E091F7
:100BF00036018E2FEE0F990BFC01EE0FFF1FE80F51
:100C0000F91FE350FE4F808186FF11C0E09136014D
:100C10008E2FEE0F990BFC01EE0FFF1FE80FF91F4F
:100C2000E350FE4F808161E08F730E948C00FF9142
:100C3000EF91DF91CF91BF91AF919F918F917F9174
:100C40006F915F914F913F912F910F900FBE0F9039
:100C50001F90189580E49CE9909389008093880008
:100C60008FEF80933601E3CF10925F0110925E0107
:100C700088EE93E0A0E0B0E0809360019093610182
:100C8000A0936201B093630184E091E090935D01D1
:100C900080935C0185EC90E09093690180936801FA
:100CA00084EC90E090936B0180936A0180EC90E07B
:100CB00090936D0180936C0181EC90E090936F01B3
:100CC00080936E0182EC90E09093710180937001AB
:100CD00086EC90E0909373018093720110927501FD
:100CE000109276011092770110927801EBEBF0E010
:100CF000249120932D02EAEBF0E0E491E0932E02A0
:100D000087EA90E0FC013491E32FF0E0EE0FFF1F43
:100D1000E057FF4F459154915093300240932F027A
:100D2000E6EAF0E0E491F0E0EE0FFF1FEA57FF4F34
:100D3000459154915093320240933102FC018491C9
:100D4000E82FF0E0EE0FFF1FE458FF4FA591B4919C
:100D5000B0933402A093330210923B0284E098E0F7
:100D60009093360280933502EC912E2B2C93E091D8
:100D70002F02F0913002908180912D02809589237D
:100D80008083809121028C3030F591E0980F909310
:100D900021028093260290E0FC01EE0FFF1FE80F76
:100DA000F91FE350FE4F88EB9BE0928381832FB7BE
:100DB000F8948091F9019091FA01A091FB01B09112
:100DC000FC012FBF8093220290932302A093240260
:100DD000B093250208958FEF80932602E8CF789490
:100DE00084B5826084BD84B5816084BD85B5826030
:100DF00085BD85B5816085BD80916E0081608093E1
:100E00006E00109281008091810082608093810049
:100E10008091810081608093810080918000816059
:100E2000809380008091B10084608093B1008091B4
:100E3000B00081608093B00080917A0084608093DC
:100E40007A0080917A00826080937A0080917A00A3
:100E5000816080937A0080917A00806880937A0024
:100E60001092C100E0916C01F0916D0182E08083ED
:100E7000E0916801F09169011082E0916A01F091BE
:100E80006B0180E1808310927401E0917001F09118
:100E9000710186E08083E0916E01F0916F018081A5
:100EA00080618083E0916E01F0916F0180818860A4
:100EB0008083E0916E01F0916F0180818068808372
:100EC000E0916E01F0916F0180818F7D8083809130
:100ED00026028C3008F068C0E7EBF0E02491E3EAEA
:100EE000F0E08491882399F090E0880F991FFC012D
:100EF000E458FF4FA591B491FC01E057FF4F859155
:100F000094918FB7F894EC91E22BEC938FBF809182
:100F10002602282F30E0F901EE0FFF1FE20FF31F2A
:100F2000E350FE4F9081907C99609083109227024D
:100F3000109228022CE0622F0E94550C829FB00173
:100F4000112430E020E0AB01420F531FFA01EE0FF5
:100F5000FF1FE40FF51FE350FE4F908196FD16C072
:100F60002F5F3F4F2C30310571F781110FC0109268
:100F7000800082E0809381001092850010928400AE
:100F8000B19A80916F00826080936F00E091260299
:100F90008E2F90E0FC01EE0FFF1FE80FF91FE350CA
:100FA000FE4F80818064808380E090E0A8E9B1E416
:100FB00080934F0190935001A0935101B09352013F
:100FC0000E946A036093530170935401809355010A
:100FD0009093560108E810E0C8E5D2E084EB482E73
:100FE000512C612C712C90E0292E90E0392E2FB7D6
:100FF000F8948091F9019091FA01A091FB01B091D0
:10100000FC012FBF409122025091230260912402E3
:1010100070912502841B950BA60BB70BC397A105F6
:10102000B10508F48BC10E946A039B01AC012093B7
:1010300053013093540140935501509356016091F0
:101040004F017091500180915101909152010E9485
:10105000120A4B015C012DE837E94EE25FE3609133
:101060004B0170914C0180914D0190914E010E9475
:10107000E30B6B017C0122E133E840EC5EE3C50148
:10108000B4010E94E30B9B01AC01C701B6010E94B1
:10109000130A6B017C0128E03CEA4CE95EE36091B5
:1010A0004701709148018091490190914A010E9445
:1010B000E30B9B01AC01C701B6010E94120A6B0150
:1010C0007C0128EB3EE145E05FE3609143017091D4
:1010D000440180914501909146010E94E30B9B01E0
:1010E000AC01C701B6010E94130A6B017C0126EA1C
:1010F0003BE944E45BE360913F01709140018091E2
:101100004101909142010E94E30B9B01AC01C70198
:10111000B6010E94120A6B017C0120E030E04CE82D
:1011200052E40E94DE0B18166CF480E090E0ACE80C
:10113000B2E480933B0190933C01A0933D01B093B6
:101140003E0112C020E030E04CE852ECC701B6018D
:101150000E947F0A87FDFEC0C0923B01D0923C01F5
:10116000E0923D01F0923E0120E030E040EA52E49E
:1011700060913B0170913C0180913D0190913E0155
:101180000E94130A609337017093380180933901EC
:1011900090933A010E94F60A6B01603222E07207D6
:1011A000BCF5209127026801C21AD10827FDD3940B
:1011B000CC0CDD1CCC0CDD1C0D2C000CEE08FF084B
:1011C00020912802AE01421B510927FD53959A0137
:1011D000220F331F220F331F032E000C440B550B1D
:1011E0002C193D094E095F09DB01653B710514F0BF
:1011F000A4EBB0E0B7FF02C0B0E0A0E00E94D909C4
:10120000A30192010E94AF09C20ED31EE41EF51E77
:10121000209126022C3080F580912702A801481BDE
:10122000510987FD5395CA01880F991F880F991F8F
:10123000C816D90684F080912802AE01481B5109D6
:1012400087FD5395CA01880F991F880F991FC816EB
:10125000D9060CF4C6010297880F991F6FB7F8944E
:1012600030E0A901440F551F240F351FF901E35049
:10127000FE4F928381836FBF8EE191E00E943D0219
:1012800060915301709154018091550190915601E4
:1012900042E00E948E0285E291E00E943D0288E2D7
:1012A00091E00E943D028AE291E00E943D0260913D
:1012B0003701709138018091390190913A0142E0F3
:1012C0000E948E0285E291E00E943D0280914301DE
:1012D00090914401A0914501B091460180933F0156
:1012E00090934001A0934101B093420180913B0152
:1012F00090913C01A0913D01B0913E01809343014A
:1013000090934401A0934501B093460180914B0115
:1013100090914C01A0914D01B0914E0180934701F5
:1013200090934801A0934901B0934A0180924B01E8
:1013300090924C01A0924D01B0924E0121143104C3
:1013400009F455CE0E949A01882309F450CE0E94D8
:1013500000004DCE80E090E0ACE8B2ECEACE052E85
:1013600097FB1EF400940E94C60957FD07D00E9407
:10137000E10907FC03D04EF40C94C6095095409542
:10138000309521953F4F4F4F5F4F08959095809531
:10139000709561957F4F8F4F9F4F08950E94030A6C
:1013A000A59F900DB49F900DA49F800D911D1124B9
:1013B0000895B7FF0C94CE090E94CE09821B930BAF
:1013C0000895A1E21A2EAA1BBB1BFD010DC0AA1F86
:1013D000BB1FEE1FFF1FA217B307E407F50720F09E
:1013E000A21BB30BE40BF50B661F771F881F991F19
:1013F0001A9469F760957095809590959B01AC0162
:10140000BD01CF010895A29FB001B39FC001A39F6A
:10141000700D811D1124911DB29F700D811D11242D
:10142000911D08955058BB27AA270E942A0A0C94A0
:10143000A40B0E94960B38F00E949D0B20F039F40B
:101440009F3F19F426F40C94930B0EF4E095E7FB00
:101450000C948D0BE92F0E94B50B58F3BA17620755
:1014600073078407950720F079F4A6F50C94D70B41
:101470000EF4E0950B2EBA2FA02D0B01B9019001AF
:101480000C01CA01A0011124FF27591B99F0593FF3
:1014900050F4503E68F11A16F040A22F232F342F3B
:1014A0004427585FF3CF469537952795A795F04089
:1014B0005395C9F77EF41F16BA0B620B730B840B9E
:1014C000BAF09150A1F0FF0FBB1F661F771F881F56
:1014D000C2F70EC0BA0F621F731F841F48F48795AE
:1014E00077956795B795F7959E3F08F0B0CF9395A0
:1014F000880F08F09927EE0F9795879508950E9419
:10150000690B08F481E008950E94980A0C94A40BDA
:101510000E949D0B58F00E94960B40F029F45F3F0B
:1015200029F00C948D0B51110C94D80B0C94930B47
:101530000E94B50B68F39923B1F3552391F3951BE2
:10154000550BBB27AA2762177307840738F09F5FE4
:101550005F4F220F331F441FAA1FA9F335D00E2E51
:101560003AF0E0E832D091505040E695001CCAF7BE
:101570002BD0FE2F29D0660F771F881FBB1F261781
:1015800037074807AB07B0E809F0BB0B802DBF0158
:10159000FF2793585F4F3AF09E3F510578F00C9427
:1015A0008D0B0C94D80B5F3FE4F3983ED4F38695F3
:1015B00077956795B795F7959F5FC9F7880F911D48
:1015C0009695879597F90895E1E0660F771F881F34
:1015D000BB1F621773078407BA0720F0621B730BE7
:1015E000840BBA0BEE1F88F7E09508950E94FD0A60
:1015F0006894B1110C94D80B08950E94BD0B88F02B
:101600009F5798F0B92F9927B751B0F0E1F0660FC6
:10161000771F881F991F1AF0BA95C9F714C0B13007
:1016200091F00E94D70BB1E008950C94D70B672F6F
:10163000782F8827B85F39F0B93FCCF38695779536
:101640006795B395D9F73EF490958095709561951F
:101650007F4F8F4F9F4F0895E89409C097FB3EF44A
:1016600090958095709561957F4F8F4F9F4F9923EF
:10167000A9F0F92F96E9BB279395F695879577956D
:101680006795B795F111F8CFFAF4BB0F11F460FF2D
:101690001BC06F5F7F4F8F4F9F4F16C0882311F085
:1016A00096E911C0772321F09EE8872F762F05C099
:1016B000662371F096E8862F70E060E02AF09A9534
:1016C000660F771F881FDAF7880F9695879597F929
:1016D0000895990F0008550FAA0BE0E8FEEF1616C3
:1016E0001706E807F907C0F012161306E407F50716
:1016F00098F0621B730B840B950B39F40A2661F08A
:10170000232B242B252B21F408950A2609F4A1402C
:10171000A6958FEF811D811D089597F99F6780E839
:1017200070E060E008959FEF80EC089500240A9433
:101730001616170618060906089500240A941216AC
:101740001306140605060895092E0394000C11F4DF
:10175000882352F0BB0F40F4BF2B11F460FF04C08C
:101760006F5F7F4F8F4F9F4F089557FD9058440FE5
:10177000551F59F05F3F71F04795880F97FB991FF0
:1017800061F09F3F79F087950895121613061406AD
:10179000551FF2CF4695F1DF08C01616170618063A
:1017A000991FF1CF86957105610508940895E89415
:1017B000BB2766277727CB0197F908950E94690B0D
:1017C00008F48FEF08950E94F60B0C94A40B0E946E
:1017D000960B38F00E949D0B20F0952311F00C948D
:1017E0008D0B0C94930B11240C94D80B0E94B50B09
:1017F00070F3959FC1F3950F50E0551F629FF00164
:10180000729FBB27F00DB11D639FAA27F00DB11D7C
:10181000AA1F649F6627B00DA11D661F829F222705
:10182000B00DA11D621F739FB00DA11D621F839F8C
:10183000A00D611D221F749F3327A00D611D231F62
:10184000849F600D211D822F762F6A2F11249F57B0
:1018500050409AF0F1F088234AF0EE0FFF1FBB1FB3
:10186000661F771F881F91505040A9F79E3F510572
:1018700080F00C948D0B0C94D80B5F3FE4F3983EF2
:10188000D4F3869577956795B795F795E7959F5F1C
:10189000C1F7FE2B880F911D9695879597F90895AE
:1018A0000E94690B880B990B0895991B79E004C07D
:1018B000991F961708F0961B881F7A95C9F780958F
:1018C0000895AA1BBB1B51E107C0AA1FBB1FA61787
:1018D000B70710F0A61BB70B881F991F5A95A9F7D9
:1018E00080959095BC01CD010895EE0FFF1F0590E6
:0A18F000F491E02D0994F894FFCF65
:1018FA0000000000D00130015D011D028E016C0163
:10190A0080016E616E00696E66006F766600496ED0
:10191A007075743A000D0A002C004F757470757456
:02192A003A0081
:00000001FF
